{
  "contractName": "Erc20user",
  "abi": [
    {
      "inputs": [],
      "stateMutability": "nonpayable",
      "type": "constructor"
    },
    {
      "inputs": [
        {
          "internalType": "uint256",
          "name": "amount",
          "type": "uint256"
        }
      ],
      "name": "transfer",
      "outputs": [],
      "stateMutability": "nonpayable",
      "type": "function"
    }
  ],
  "bytecode": "0x608060405234801561001057600080fd5b50739ef3507f76ce68752e6c63c9c8cc5562a8c87bc06000806101000a81548173ffffffffffffffffffffffffffffffffffffffff021916908373ffffffffffffffffffffffffffffffffffffffff16021790555061027c806100746000396000f3fe608060405234801561001057600080fd5b506004361061002b5760003560e01c806312514bba14610030575b600080fd5b61004a60048036038101906100459190610152565b61004c565b005b60008054906101000a900473ffffffffffffffffffffffffffffffffffffffff1673ffffffffffffffffffffffffffffffffffffffff166323b872dd3330846040518463ffffffff1660e01b81526004016100a993929190610199565b602060405180830381600087803b1580156100c357600080fd5b505af11580156100d7573d6000803e3d6000fd5b505050506040513d601f19601f820116820180604052508101906100fb9190610129565b5050565b60008151905061010e81610218565b92915050565b6000813590506101238161022f565b92915050565b60006020828403121561013b57600080fd5b6000610149848285016100ff565b91505092915050565b60006020828403121561016457600080fd5b600061017284828501610114565b91505092915050565b610184816101d0565b82525050565b6101938161020e565b82525050565b60006060820190506101ae600083018661017b565b6101bb602083018561017b565b6101c8604083018461018a565b949350505050565b60006101db826101ee565b9050919050565b60008115159050919050565b600073ffffffffffffffffffffffffffffffffffffffff82169050919050565b6000819050919050565b610221816101e2565b811461022c57600080fd5b50565b6102388161020e565b811461024357600080fd5b5056fea26469706673582212202530a04b9b8f2f6c401719fcf2d1e5d89328ee202696bfbc0450798e8e6a355b64736f6c63430008000033",
  "immutableReferences": {},
  "source": "// SPDX-License-Identifier: MIT\r\npragma solidity ^0.8.0;\r\n \r\nimport \"@openzeppelin/contracts/token/ERC20/ERC20.sol\";\r\nimport \"@openzeppelin/contracts/token/ERC20/IERC20.sol\";\r\n \r\ncontract Erc20user {\r\n    IERC20 erc20;\r\n     \r\n    constructor(){\r\n//A\r\n         erc20=IERC20(address(0x9EF3507f76Ce68752E6C63c9C8Cc5562a8c87Bc0));\r\n    }   \r\n     \r\n   //address(this)\r\n   //msg.sender\r\n    function transfer(uint256 amount) public {\r\n        erc20.transferFrom(msg.sender,address(this),amount);\r\n    }   \r\n     \r\n}",
  "sourcePath": "D:/developtools/truffle/workspace/truffleTest/contracts/Erc20user.sol",
  "compiler": {
    "name": "solc",
    "version": "0.8.0+commit.c7dfd78e.Emscripten.clang"
  },
  "schemaVersion": "3.4.1",
  "updatedAt": "2021-07-12T08:14:56.065Z",
  "devdoc": {
    "kind": "dev",
    "methods": {},
    "version": 1
  },
  "userdoc": {
    "kind": "user",
    "methods": {},
    "version": 1
  }
}