{
  "contractName": "GuessVote",
  "abi": [
    {
      "inputs": [],
      "stateMutability": "nonpayable",
      "type": "constructor"
    },
    {
      "inputs": [
        {
          "internalType": "uint256",
          "name": "vote",
          "type": "uint256"
        },
        {
          "internalType": "uint256",
          "name": "amount",
          "type": "uint256"
        }
      ],
      "name": "voteGuess",
      "outputs": [
        {
          "components": [
            {
              "internalType": "uint256",
              "name": "_voteId",
              "type": "uint256"
            },
            {
              "internalType": "address",
              "name": "_account",
              "type": "address"
            },
            {
              "internalType": "uint256",
              "name": "_periodNum",
              "type": "uint256"
            },
            {
              "internalType": "uint256",
              "name": "_amount",
              "type": "uint256"
            },
            {
              "internalType": "uint256",
              "name": "_vote",
              "type": "uint256"
            },
            {
              "internalType": "uint256",
              "name": "_result",
              "type": "uint256"
            },
            {
              "internalType": "uint256",
              "name": "_winAmount",
              "type": "uint256"
            }
          ],
          "internalType": "struct GuessVote.Voter[]",
          "name": "voters",
          "type": "tuple[]"
        }
      ],
      "stateMutability": "nonpayable",
      "type": "function"
    },
    {
      "inputs": [],
      "name": "queryVoteListByAddress",
      "outputs": [
        {
          "components": [
            {
              "internalType": "uint256",
              "name": "_voteId",
              "type": "uint256"
            },
            {
              "internalType": "address",
              "name": "_account",
              "type": "address"
            },
            {
              "internalType": "uint256",
              "name": "_periodNum",
              "type": "uint256"
            },
            {
              "internalType": "uint256",
              "name": "_amount",
              "type": "uint256"
            },
            {
              "internalType": "uint256",
              "name": "_vote",
              "type": "uint256"
            },
            {
              "internalType": "uint256",
              "name": "_result",
              "type": "uint256"
            },
            {
              "internalType": "uint256",
              "name": "_winAmount",
              "type": "uint256"
            }
          ],
          "internalType": "struct GuessVote.Voter[]",
          "name": "voters",
          "type": "tuple[]"
        }
      ],
      "stateMutability": "view",
      "type": "function",
      "constant": true
    },
    {
      "inputs": [],
      "name": "generateVoteResult",
      "outputs": [],
      "stateMutability": "nonpayable",
      "type": "function"
    },
    {
      "inputs": [
        {
          "components": [
            {
              "internalType": "uint256",
              "name": "_periodNum",
              "type": "uint256"
            },
            {
              "internalType": "uint256",
              "name": "_amount",
              "type": "uint256"
            },
            {
              "internalType": "uint256",
              "name": "_voteResult",
              "type": "uint256"
            },
            {
              "internalType": "bool",
              "name": "_isHandled",
              "type": "bool"
            }
          ],
          "internalType": "struct GuessVote.PeriodVoteResult",
          "name": "periodVoteResult",
          "type": "tuple"
        }
      ],
      "name": "sendAwards",
      "outputs": [
        {
          "internalType": "bool",
          "name": "",
          "type": "bool"
        }
      ],
      "stateMutability": "nonpayable",
      "type": "function"
    }
  ],
  "bytecode": "0x60806040526001600460006101000a81548160ff02191690836001811115610050577f4e487b7100000000000000000000000000000000000000000000000000000000600052602160045260246000fd5b021790555034801561006157600080fd5b50732455f09186298a5fb7545c1260d7ab8f4d7998d8600460016101000a81548173ffffffffffffffffffffffffffffffffffffffff021916908373ffffffffffffffffffffffffffffffffffffffff160217905550611533806100c66000396000f3fe608060405234801561001057600080fd5b506004361061004c5760003560e01c8063918d250514610051578063a12553aa14610081578063c64286781461008b578063f509b923146100bb575b600080fd5b61006b60048036038101906100669190610f97565b6100d9565b6040516100789190611210565b60405180910390f35b61008961039e565b005b6100a560048036038101906100a09190610fc0565b6104e2565b6040516100b291906111ee565b60405180910390f35b6100c36108ec565b6040516100d091906111ee565b60405180910390f35b60008160600151156100ea57600080fd5b6000600160008460000151815260200190815260200160002090506000805b82805490508110156101a4576000838281548110610150577f4e487b7100000000000000000000000000000000000000000000000000000000600052603260045260246000fd5b90600052602060002090600702019050856040015181600501819055508060050154816004015414156101905780600301548361018d9190611295565b92505b50808061019c906113be565b915050610109565b5060005b82805490508110156103925760008382815481106101ef577f4e487b7100000000000000000000000000000000000000000000000000000000600052603260045260246000fd5b90600052602060002090600702019050856040015181600501819055508060050154816004015414156103425782600a610229919061131c565b60098760200151836003015461023f919061131c565b610249919061131c565b61025391906112eb565b816006018190555060008160060154111561034157600460019054906101000a900473ffffffffffffffffffffffffffffffffffffffff1673ffffffffffffffffffffffffffffffffffffffff1663a9059cbb8260010160009054906101000a900473ffffffffffffffffffffffffffffffffffffffff1683600601546040518363ffffffff1660e01b81526004016102ed9291906111c5565b602060405180830381600087803b15801561030757600080fd5b505af115801561031b573d6000803e3d6000fd5b505050506040513d601f19601f8201168201806040525081019061033f9190610f6e565b505b5b61037e8160010160009054906101000a900473ffffffffffffffffffffffffffffffffffffffff16826000015483600501548460060154610a19565b50808061038a906113be565b9150506101a8565b50600192505050919050565b6000600190505b6014436103b291906112eb565b81116104df5760006002600083815260200190815260200160002090508181600001541480156103f157508060030160009054906101000a900460ff16155b156104cb576002444260405160200161040b929190611162565b6040516020818303038152906040528051906020012060001c61042e9190611411565b6002600084815260200190815260200160002060020181905550610495816040518060800160405290816000820154815260200160018201548152602001600282015481526020016003820160009054906101000a900460ff1615151515815250506100d9565b156104ca5760016002600084815260200190815260200160002060030160006101000a81548160ff0219169083151502179055505b5b5080806104d7906113be565b9150506103a5565b50565b60606104ec610b84565b600460006101000a81548160ff02191690836001811115610536577f4e487b7100000000000000000000000000000000000000000000000000000000600052602160045260246000fd5b021790555060006001811115610575577f4e487b7100000000000000000000000000000000000000000000000000000000600052602160045260246000fd5b600460009054906101000a900460ff1660018111156105bd577f4e487b7100000000000000000000000000000000000000000000000000000000600052602160045260246000fd5b146105c757600080fd5b60006014436105d69190611411565b11156106005760016014436105eb91906112eb565b6105f59190611295565b600381905550610614565b60144361060d91906112eb565b6003819055505b60006040518060e00160405280610629610bc4565b81526020013373ffffffffffffffffffffffffffffffffffffffff168152602001600354815260200184815260200185815260200160028152602001600081525090506000803373ffffffffffffffffffffffffffffffffffffffff1673ffffffffffffffffffffffffffffffffffffffff1681526020019081526020016000208190806001815401808255809150506001900390600052602060002090600702016000909190919091506000820151816000015560208201518160010160006101000a81548173ffffffffffffffffffffffffffffffffffffffff021916908373ffffffffffffffffffffffffffffffffffffffff16021790555060408201518160020155606082015181600301556080820151816004015560a0820151816005015560c0820151816006015550506001600060035481526020019081526020016000208190806001815401808255809150506001900390600052602060002090600702016000909190919091506000820151816000015560208201518160010160006101000a81548173ffffffffffffffffffffffffffffffffffffffff021916908373ffffffffffffffffffffffffffffffffffffffff16021790555060408201518160020155606082015181600301556080820151816004015560a0820151816005015560c08201518160060155505061082960035484610be8565b600460019054906101000a900473ffffffffffffffffffffffffffffffffffffffff1673ffffffffffffffffffffffffffffffffffffffff166323b872dd3330866040518463ffffffff1660e01b81526004016108889392919061118e565b602060405180830381600087803b1580156108a257600080fd5b505af11580156108b6573d6000803e3d6000fd5b505050506040513d601f19601f820116820180604052508101906108da9190610f6e565b506108e3610cb6565b91505092915050565b60606000803373ffffffffffffffffffffffffffffffffffffffff1673ffffffffffffffffffffffffffffffffffffffff168152602001908152602001600020805480602002602001604051908101604052809291908181526020016000905b82821015610a1057838290600052602060002090600702016040518060e0016040529081600082015481526020016001820160009054906101000a900473ffffffffffffffffffffffffffffffffffffffff1673ffffffffffffffffffffffffffffffffffffffff1673ffffffffffffffffffffffffffffffffffffffff168152602001600282015481526020016003820154815260200160048201548152602001600582015481526020016006820154815250508152602001906001019061094c565b50505050905090565b60008060008673ffffffffffffffffffffffffffffffffffffffff1673ffffffffffffffffffffffffffffffffffffffff1681526020019081526020016000209050600081805490501115610b7d5760005b8180549050811015610b7b5784828281548110610ab1577f4e487b7100000000000000000000000000000000000000000000000000000000600052603260045260246000fd5b9060005260206000209060070201600001541415610b685783828281548110610b03577f4e487b7100000000000000000000000000000000000000000000000000000000600052603260045260246000fd5b90600052602060002090600702016005018190555082828281548110610b52577f4e487b7100000000000000000000000000000000000000000000000000000000600052603260045260246000fd5b9060005260206000209060070201600601819055505b8080610b73906113be565b915050610a6b565b505b5050505050565b600080601443610b949190611411565b118015610bae5750600a601443610bab9190611411565b11155b15610bbc5760009050610bc1565b600190505b90565b6000600160056000828254610bd99190611295565b92505081905550600554905090565b8160026000848152602001908152602001600020600001541415610c385780600260008481526020019081526020016000206001016000828254610c2c9190611295565b92505081905550610cb2565b604051806080016040528083815260200182815260200160028152602001600015158152506002600084815260200190815260200160002060008201518160000155602082015181600101556040820151816002015560608201518160030160006101000a81548160ff0219169083151502179055509050505b5050565b606060008060003373ffffffffffffffffffffffffffffffffffffffff1673ffffffffffffffffffffffffffffffffffffffff168152602001908152602001600020905060005b8180549050811015610dcb5760026000838381548110610d46577f4e487b7100000000000000000000000000000000000000000000000000000000600052603260045260246000fd5b906000526020600020906007020160020154815260200190815260200160002060020154828281548110610da3577f4e487b7100000000000000000000000000000000000000000000000000000000600052603260045260246000fd5b9060005260206000209060070201600501819055508080610dc3906113be565b915050610cfd565b5080805480602002602001604051908101604052809291908181526020016000905b82821015610eb157838290600052602060002090600702016040518060e0016040529081600082015481526020016001820160009054906101000a900473ffffffffffffffffffffffffffffffffffffffff1673ffffffffffffffffffffffffffffffffffffffff1673ffffffffffffffffffffffffffffffffffffffff1681526020016002820154815260200160038201548152602001600482015481526020016005820154815260200160068201548152505081526020019060010190610ded565b5050505091505090565b600081359050610eca816114cf565b92915050565b600081519050610edf816114cf565b92915050565b600060808284031215610ef757600080fd5b610f01608061122b565b90506000610f1184828501610f59565b6000830152506020610f2584828501610f59565b6020830152506040610f3984828501610f59565b6040830152506060610f4d84828501610ebb565b60608301525092915050565b600081359050610f68816114e6565b92915050565b600060208284031215610f8057600080fd5b6000610f8e84828501610ed0565b91505092915050565b600060808284031215610fa957600080fd5b6000610fb784828501610ee5565b91505092915050565b60008060408385031215610fd357600080fd5b6000610fe185828601610f59565b9250506020610ff285828601610f59565b9150509250929050565b6000611008838361109f565b60e08301905092915050565b61101d81611376565b82525050565b61102c81611376565b82525050565b600061103d8261126c565b6110478185611284565b93506110528361125c565b8060005b8381101561108357815161106a8882610ffc565b975061107583611277565b925050600181019050611056565b5085935050505092915050565b61109981611388565b82525050565b60e0820160008201516110b5600085018261112d565b5060208201516110c86020850182611014565b5060408201516110db604085018261112d565b5060608201516110ee606085018261112d565b506080820151611101608085018261112d565b5060a082015161111460a085018261112d565b5060c082015161112760c085018261112d565b50505050565b611136816113b4565b82525050565b611145816113b4565b82525050565b61115c611157826113b4565b611407565b82525050565b600061116e828561114b565b60208201915061117e828461114b565b6020820191508190509392505050565b60006060820190506111a36000830186611023565b6111b06020830185611023565b6111bd604083018461113c565b949350505050565b60006040820190506111da6000830185611023565b6111e7602083018461113c565b9392505050565b600060208201905081810360008301526112088184611032565b905092915050565b60006020820190506112256000830184611090565b92915050565b6000604051905081810181811067ffffffffffffffff82111715611252576112516114a0565b5b8060405250919050565b6000819050602082019050919050565b600081519050919050565b6000602082019050919050565b600082825260208201905092915050565b60006112a0826113b4565b91506112ab836113b4565b9250827fffffffffffffffffffffffffffffffffffffffffffffffffffffffffffffffff038211156112e0576112df611442565b5b828201905092915050565b60006112f6826113b4565b9150611301836113b4565b92508261131157611310611471565b5b828204905092915050565b6000611327826113b4565b9150611332836113b4565b9250817fffffffffffffffffffffffffffffffffffffffffffffffffffffffffffffffff048311821515161561136b5761136a611442565b5b828202905092915050565b600061138182611394565b9050919050565b60008115159050919050565b600073ffffffffffffffffffffffffffffffffffffffff82169050919050565b6000819050919050565b60006113c9826113b4565b91507fffffffffffffffffffffffffffffffffffffffffffffffffffffffffffffffff8214156113fc576113fb611442565b5b600182019050919050565b6000819050919050565b600061141c826113b4565b9150611427836113b4565b92508261143757611436611471565b5b828206905092915050565b7f4e487b7100000000000000000000000000000000000000000000000000000000600052601160045260246000fd5b7f4e487b7100000000000000000000000000000000000000000000000000000000600052601260045260246000fd5b7f4e487b7100000000000000000000000000000000000000000000000000000000600052604160045260246000fd5b6114d881611388565b81146114e357600080fd5b50565b6114ef816113b4565b81146114fa57600080fd5b5056fea264697066735822122065912c41939e549fd5a0425c8d0d97e8c7ff96b8bc2c35887ecb464134a40b2864736f6c63430008000033",
  "immutableReferences": {},
  "source": "// SPDX-License-Identifier: MIT\r\npragma solidity ^0.8.0;\r\n\r\n\r\n// Import Ownable from the OpenZeppelin Contracts library\r\nimport \"@openzeppelin/contracts/token/ERC20/IERC20.sol\";\r\n// import \"@nomiclabs/buidler/console.sol\";\r\n\r\ncontract GuessVote {\r\n    // \r\n    mapping(address => Voter[]) _addressVoterMap;\r\n    // \r\n    mapping(uint256 => Voter[]) _periodVoterMap;\r\n    // \r\n    mapping(uint256 => PeriodVoteResult) _periodResultMap;\r\n\r\n    // \r\n    uint256 _periodNum;\r\n\r\n    // \r\n    States _periodState = States.Ended;\r\n\r\n    IERC20 _gusc;\r\n\r\n    // id\r\n    uint _voteId;\r\n\r\n    // \r\n    enum States {\r\n        Voting,\r\n        Ended\r\n    }\r\n\r\n    struct Voter {\r\n        // id\r\n        uint _voteId;    \r\n        // \r\n        address _account;\r\n        // \r\n        uint256 _periodNum;\r\n        // \r\n        uint256 _amount;\r\n        // \r\n        uint256 _vote;\r\n        // (0:12)\r\n        uint256 _result;\r\n        // \r\n        uint256 _winAmount;\r\n    }\r\n\r\n    struct PeriodVoteResult {\r\n        // \r\n        uint256 _periodNum;\r\n        // \r\n        uint256 _amount;\r\n        // (0:12)\r\n        uint256 _voteResult;\r\n        // \r\n        bool _isHandled;\r\n    }\r\n\r\n    constructor() {\r\n        _gusc=IERC20(0x2455f09186298a5Fb7545C1260D7Ab8f4D7998D8);\r\n    }\r\n\r\n    function generateVoteId() internal returns(uint) {\r\n        _voteId += 1;\r\n        return _voteId;\r\n    }\r\n\r\n    /**\r\n     * \r\n     */\r\n    function voteGuess(uint256 vote, uint256 amount) external returns (Voter[] memory voters) {\r\n        // \r\n        _periodState = queryLatestPeriodState();\r\n        require(_periodState == States.Voting);\r\n\r\n        // 201\r\n        if (block.number % 20 > 0) {\r\n            _periodNum = (block.number / 20) + 1;\r\n        } else {\r\n            _periodNum = block.number / 20;\r\n        }\r\n        // \r\n        Voter memory voter = Voter({_voteId: generateVoteId(), _account: msg.sender, _periodNum: _periodNum, _amount:amount, _vote:vote, _result:2, _winAmount:0});\r\n        _addressVoterMap[msg.sender].push(voter);\r\n        _periodVoterMap[_periodNum].push(voter);\r\n\r\n        // \r\n        updateTotalAmount(_periodNum, amount);\r\n\r\n        // \r\n        _gusc.transferFrom(msg.sender, address(this), amount);\r\n\r\n        return queryVoteListByAddressWithResult();\r\n    }\r\n    \r\n    function updateTotalAmount(uint256 periodNum, uint256 amount) internal {\r\n        if (_periodResultMap[periodNum]._periodNum == periodNum) {\r\n            // \r\n            _periodResultMap[periodNum]._amount += amount;\r\n        } else {\r\n            // map\r\n            _periodResultMap[periodNum] = PeriodVoteResult({_periodNum:periodNum, _amount:amount, _voteResult:2, _isHandled:false});\r\n        }\r\n    }\r\n\r\n    /**\r\n     * \r\n     */\r\n    function queryVoteListByAddressWithResult() internal returns (Voter[] memory voters) {\r\n        Voter[] storage voterList = _addressVoterMap[msg.sender];\r\n         for (uint i = 0; i < voterList.length; i++) {\r\n             voterList[i]._result = _periodResultMap[voterList[i]._periodNum]._voteResult;\r\n        }\r\n        return voterList;\r\n    }\r\n\r\n    /**\r\n     * \r\n     */\r\n    function queryVoteListByAddress() public view returns (Voter[] memory voters) {\r\n        return _addressVoterMap[msg.sender];\r\n    }\r\n\r\n    /**\r\n     * \r\n     */\r\n    function queryLatestPeriodState() internal view returns (States) {\r\n        // 201010\r\n        if (block.number % 20 > 0 && block.number % 20 <= 10) {\r\n            return States.Voting;\r\n        } else {\r\n            return States.Ended;\r\n        }\r\n    }\r\n\r\n    /**\r\n     * \r\n     */\r\n    function generateVoteResult() public {\r\n        // \r\n        for (uint256 i=1;i<=(block.number / 20);i++) {\r\n            PeriodVoteResult storage periodVoteResult = _periodResultMap[i];\r\n            // \r\n            if (periodVoteResult._periodNum == i && !periodVoteResult._isHandled) {\r\n                _periodResultMap[i]._voteResult = uint256(keccak256(abi.encodePacked(block.difficulty, block.timestamp)))%2;\r\n                if (sendAwards(periodVoteResult)) {\r\n                    _periodResultMap[i]._isHandled = true;\r\n                }\r\n            }\r\n        }\r\n    }\r\n\r\n    /**\r\n     * \r\n     */\r\n    function sendAwards(PeriodVoteResult memory periodVoteResult) public returns (bool) {\r\n        // \r\n        require(!periodVoteResult._isHandled);\r\n\r\n        Voter[] storage periodVoterList = _periodVoterMap[periodVoteResult._periodNum];\r\n        uint winTotalAmount = 0;\r\n        for(uint i = 0; i < periodVoterList.length; i++) {\r\n            Voter storage voter = periodVoterList[i];\r\n            // \r\n            voter._result = periodVoteResult._voteResult;\r\n            if (voter._vote == voter._result) {\r\n                winTotalAmount += voter._amount;\r\n            }\r\n        }\r\n        for(uint i = 0; i < periodVoterList.length; i++) {\r\n            Voter storage voter = periodVoterList[i];\r\n\r\n            // \r\n            voter._result = periodVoteResult._voteResult;\r\n            if (voter._vote == voter._result) {\r\n                // 10%,  TODO\r\n                voter._winAmount = voter._amount * periodVoteResult._amount * 9 / (10 * winTotalAmount);\r\n                if (voter._winAmount > 0) {\r\n                    // \r\n                    _gusc.transfer(voter._account, voter._winAmount);\r\n                }\r\n            }\r\n            // \r\n            updateVoteResultByAccountAfterSendAwards(voter._account, voter._voteId, voter._result, voter._winAmount);\r\n        }\r\n\r\n        return true;\r\n    }\r\n\r\n    /**\r\n    * ,\r\n    */\r\n    function updateVoteResultByAccountAfterSendAwards(address account, uint voteId, uint result, uint winAmount) internal {\r\n        Voter[] storage voterList = _addressVoterMap[account];\r\n        if (voterList.length > 0) {\r\n            for (uint256 index = 0; index < voterList.length; index++) {\r\n                if (voterList[index]._voteId == voteId) {\r\n                    voterList[index]._result = result;\r\n                    voterList[index]._winAmount = winAmount;\r\n                }\r\n            }\r\n        }\r\n\r\n    }\r\n}\r\n",
  "sourcePath": "D:/developtools/truffle/workspace/truffleTest/contracts/GuessVote.sol",
  "compiler": {
    "name": "solc",
    "version": "0.8.0+commit.c7dfd78e.Emscripten.clang"
  },
  "schemaVersion": "3.4.1",
  "updatedAt": "2021-07-23T01:58:58.534Z",
  "networkType": "ethereum",
  "devdoc": {
    "kind": "dev",
    "methods": {},
    "version": 1
  },
  "userdoc": {
    "kind": "user",
    "methods": {
      "generateVoteResult()": {
        "notice": ""
      },
      "queryVoteListByAddress()": {
        "notice": ""
      },
      "sendAwards((uint256,uint256,uint256,bool))": {
        "notice": ""
      },
      "voteGuess(uint256,uint256)": {
        "notice": ""
      }
    },
    "version": 1
  }
}