{
  "contractName": "Guess",
  "abi": [
    {
      "constant": false,
      "inputs": [
        {
          "internalType": "uint256",
          "name": "_a",
          "type": "uint256"
        },
        {
          "internalType": "uint256",
          "name": "_b",
          "type": "uint256"
        }
      ],
      "name": "taker",
      "outputs": [],
      "payable": false,
      "stateMutability": "nonpayable",
      "type": "function"
    }
  ],
  "bytecode": "0x6080604052348015600f57600080fd5b5060a48061001e6000396000f3fe6080604052348015600f57600080fd5b506004361060285760003560e01c80630704893f14602d575b600080fd5b606060048036036040811015604157600080fd5b8101908080359060200190929190803590602001909291905050506062565b005b808201600081905550505056fea265627a7a7231582075e5bbf36c0daa7947f56ecc7dec3e6c6519114e216b85366970766cac9a404864736f6c63430005100032",
  "source": "pragma solidity  >=0.4.22 <0.9.0;\n\ncontract Guess {\n    uint sum;\n    function taker(uint _a, uint _b) public {\n        sum = _a + _b;\n    }\n}",
  "sourcePath": "D:/developtools/truffle/workspace/truffleTest/contracts/Guess.sol",
  "compiler": {
    "name": "solc",
    "version": "0.5.16+commit.9c3226ce.Emscripten.clang"
  },
  "schemaVersion": "3.4.1",
  "updatedAt": "2021-07-06T08:58:02.672Z",
  "devdoc": {
    "methods": {}
  },
  "userdoc": {
    "methods": {}
  }
}