{
  "contractName": "VoteTest",
  "abi": [
    {
      "inputs": [],
      "stateMutability": "nonpayable",
      "type": "constructor"
    },
    {
      "inputs": [],
      "name": "generateVoteResult",
      "outputs": [],
      "stateMutability": "nonpayable",
      "type": "function"
    },
    {
      "inputs": [],
      "name": "getMap",
      "outputs": [
        {
          "components": [
            {
              "internalType": "uint256",
              "name": "_periodNum",
              "type": "uint256"
            },
            {
              "internalType": "uint256",
              "name": "_amount",
              "type": "uint256"
            },
            {
              "internalType": "uint256",
              "name": "_voteResult",
              "type": "uint256"
            },
            {
              "internalType": "bool",
              "name": "_isHandled",
              "type": "bool"
            }
          ],
          "internalType": "struct VoteTest.PeriodVoteResult[]",
          "name": "",
          "type": "tuple[]"
        }
      ],
      "stateMutability": "view",
      "type": "function"
    },
    {
      "inputs": [
        {
          "components": [
            {
              "internalType": "uint256",
              "name": "_periodNum",
              "type": "uint256"
            },
            {
              "internalType": "uint256",
              "name": "_amount",
              "type": "uint256"
            },
            {
              "internalType": "uint256",
              "name": "_voteResult",
              "type": "uint256"
            },
            {
              "internalType": "bool",
              "name": "_isHandled",
              "type": "bool"
            }
          ],
          "internalType": "struct VoteTest.PeriodVoteResult",
          "name": "periodVoteResult",
          "type": "tuple"
        }
      ],
      "name": "sendAwards",
      "outputs": [
        {
          "internalType": "bool",
          "name": "",
          "type": "bool"
        }
      ],
      "stateMutability": "nonpayable",
      "type": "function"
    }
  ],
  "bytecode": "0x608060405234801561001057600080fd5b506000600190505b600a81116100b757604051806080016040528082815260200160018361003e91906100bd565b8152602001600281526020016000151581525060008083815260200190815260200160002060008201518160000155602082015181600101556040820151816002015560608201518160030160006101000a81548160ff02191690831515021790555090505080806100af9061011d565b915050610018565b50610195565b60006100c882610113565b91506100d383610113565b9250827fffffffffffffffffffffffffffffffffffffffffffffffffffffffffffffffff0382111561010857610107610166565b5b828201905092915050565b6000819050919050565b600061012882610113565b91507fffffffffffffffffffffffffffffffffffffffffffffffffffffffffffffffff82141561015b5761015a610166565b5b600182019050919050565b7f4e487b7100000000000000000000000000000000000000000000000000000000600052601160045260246000fd5b6108bb806101a46000396000f3fe608060405234801561001057600080fd5b50600436106100415760003560e01c8063918d250514610046578063a12553aa14610076578063ad3de14c14610080575b600080fd5b610060600480360381019061005b919061049a565b61009e565b60405161006d9190610620565b60405180910390f35b61007e6101a4565b005b610088610364565b60405161009591906105fe565b60405180910390f35b60008160600151156100af57600080fd5b6014436100bc91906106a5565b8260000151106100cb57600080fd5b60006001600084600001518152602001908152602001600020905060005b8180549050811015610199576000828281548110610130577f4e487b7100000000000000000000000000000000000000000000000000000000600052603260045260246000fd5b90600052602060002090600602019050846040015181600301541415610185578460200151600a61016191906106d6565b6009826002015461017291906106d6565b61017c91906106a5565b81600501819055505b50808061019190610746565b9150506100e9565b506001915050919050565b6000600190505b600a811161036157600080600083815260200190815260200160002090508181600001541480156101eb57508060030160009054906101000a900460ff16155b156102c357600244426040516020016102059291906105d2565b6040516020818303038152906040528051906020012060001c6102289190610799565b6000808481526020019081526020016000206002018190555061028e816040518060800160405290816000820154815260200160018201548152602001600282015481526020016003820160009054906101000a900460ff16151515158152505061009e565b156102c257600160008084815260200190815260200160002060030160006101000a81548160ff0219169083151502179055505b5b600260008084815260200190815260200160002090806001815401808255809150506001900390600052602060002090600402016000909190919091506000820154816000015560018201548160010155600282015481600201556003820160009054906101000a900460ff168160030160006101000a81548160ff021916908315150217905550505050808061035990610746565b9150506101ab565b50565b60606002805480602002602001604051908101604052809291908181526020016000905b828210156103f357838290600052602060002090600402016040518060800160405290816000820154815260200160018201548152602001600282015481526020016003820160009054906101000a900460ff16151515158152505081526020019060010190610388565b50505050905090565b60008135905061040b81610857565b92915050565b60006080828403121561042357600080fd5b61042d608061063b565b9050600061043d84828501610485565b600083015250602061045184828501610485565b602083015250604061046584828501610485565b6040830152506060610479848285016103fc565b60608301525092915050565b6000813590506104948161086e565b92915050565b6000608082840312156104ac57600080fd5b60006104ba84828501610411565b91505092915050565b60006104cf8383610557565b60808301905092915050565b60006104e68261067c565b6104f08185610694565b93506104fb8361066c565b8060005b8381101561052c57815161051388826104c3565b975061051e83610687565b9250506001810190506104ff565b5085935050505092915050565b61054281610730565b82525050565b61055181610730565b82525050565b60808201600082015161056d60008501826105ac565b50602082015161058060208501826105ac565b50604082015161059360408501826105ac565b5060608201516105a66060850182610539565b50505050565b6105b58161073c565b82525050565b6105cc6105c78261073c565b61078f565b82525050565b60006105de82856105bb565b6020820191506105ee82846105bb565b6020820191508190509392505050565b6000602082019050818103600083015261061881846104db565b905092915050565b60006020820190506106356000830184610548565b92915050565b6000604051905081810181811067ffffffffffffffff8211171561066257610661610828565b5b8060405250919050565b6000819050602082019050919050565b600081519050919050565b6000602082019050919050565b600082825260208201905092915050565b60006106b08261073c565b91506106bb8361073c565b9250826106cb576106ca6107f9565b5b828204905092915050565b60006106e18261073c565b91506106ec8361073c565b9250817fffffffffffffffffffffffffffffffffffffffffffffffffffffffffffffffff0483118215151615610725576107246107ca565b5b828202905092915050565b60008115159050919050565b6000819050919050565b60006107518261073c565b91507fffffffffffffffffffffffffffffffffffffffffffffffffffffffffffffffff821415610784576107836107ca565b5b600182019050919050565b6000819050919050565b60006107a48261073c565b91506107af8361073c565b9250826107bf576107be6107f9565b5b828206905092915050565b7f4e487b7100000000000000000000000000000000000000000000000000000000600052601160045260246000fd5b7f4e487b7100000000000000000000000000000000000000000000000000000000600052601260045260246000fd5b7f4e487b7100000000000000000000000000000000000000000000000000000000600052604160045260246000fd5b61086081610730565b811461086b57600080fd5b50565b6108778161073c565b811461088257600080fd5b5056fea264697066735822122041350f528712a95a6e062de671f9f83504e81691002e8fe529eb39e343f9987a64736f6c63430008000033",
  "immutableReferences": {},
  "source": "// SPDX-License-Identifier: MIT\npragma solidity ^0.8.0;\n\n\ncontract VoteTest {\n    \n    mapping(uint256 => PeriodVoteResult) _periodResultMap;\n    mapping(uint256 => Voter[]) _periodVoterMap;\n    PeriodVoteResult[] resultList;\n\n    constructor() {\n        for (uint i=1;i<=10;i++) {\n            _periodResultMap[i] = PeriodVoteResult({_periodNum:i, _amount:i+1, _voteResult:2, _isHandled:false});\n        }\n    }\n\n    struct PeriodVoteResult {\n        // \n        uint256 _periodNum;\n        // \n        uint256 _amount;\n        // (0:12)\n        uint256 _voteResult;\n        // \n        bool _isHandled;\n    }\n\n    struct Voter {\n        // \n        address _account;\n        // \n        uint256 _periodNum;\n        // \n        uint256 _amount;\n        // \n        uint256 _vote;\n        // (0:12)\n        uint256 _result;\n        // \n        uint256 _winAmount;\n    }\n\n    /**\n     * \n     */\n    function generateVoteResult() public {\n        // \n        // for (uint256 i=1;i<(block.number / 20);i++) {\n        for (uint i=1;i<=10;i++) {\n            PeriodVoteResult storage periodVoteResult = _periodResultMap[i];\n            // // \n            if (periodVoteResult._periodNum == i && !periodVoteResult._isHandled) {\n                _periodResultMap[i]._voteResult = uint256(keccak256(abi.encodePacked(block.difficulty, block.timestamp)))%2;\n                if (sendAwards(periodVoteResult)) {\n                    _periodResultMap[i]._isHandled = true;\n                }\n            }\n            resultList.push(_periodResultMap[i]);\n        }\n    }\n    function getMap() public view returns (PeriodVoteResult[] memory){\n        return resultList;\n    }\n    /**\n     * \n     */\n    function sendAwards(PeriodVoteResult memory periodVoteResult) public returns (bool) {\n        // \n        require(!periodVoteResult._isHandled);\n        require(periodVoteResult._periodNum < (block.number / 20));\n\n        Voter[] storage periodVoterList = _periodVoterMap[periodVoteResult._periodNum];\n        for(uint i = 0; i < periodVoterList.length; i++) {\n            Voter storage voter = periodVoterList[i];\n            if (voter._vote == periodVoteResult._voteResult) {\n                // 10%\n                voter._winAmount = voter._amount * 9 / (10 * periodVoteResult._amount);\n                if (voter._winAmount > 0) {\n                    // \n                }\n            }\n        }\n\n        return true;\n    }\n}",
  "sourcePath": "D:/developtools/truffle/workspace/truffleTest/contracts/VoteTest.sol",
  "compiler": {
    "name": "solc",
    "version": "0.8.0+commit.c7dfd78e.Emscripten.clang"
  },
  "schemaVersion": "3.4.1",
  "updatedAt": "2021-07-22T02:31:17.376Z",
  "devdoc": {
    "kind": "dev",
    "methods": {},
    "version": 1
  },
  "userdoc": {
    "kind": "user",
    "methods": {
      "generateVoteResult()": {
        "notice": ""
      },
      "sendAwards((uint256,uint256,uint256,bool))": {
        "notice": ""
      }
    },
    "version": 1
  }
}